:020000040800F2
:100000004804002035010008D7060008CF06000884
:10001000D3060008F30300087D0800080000000074
:100020000000000000000000000000005107000870
:100030009905000800000000D9060008150800080E
:100040004F0100084F0100084F0100084F01000850
:100050004F0100084F0100084F0100084F01000840
:100060004F0100084F0100084F0100084F01000830
:100070004F0100084F0100084F0100084F01000820
:100080004F0100084F0100084F0100080000000068
:100090000000000000000000000000004F01000808
:1000A0004F0100084F0100084F0100084F010008F0
:1000B0004F0100084F0100084F0100084F010008E0
:1000C0004F0100084F0100084F0100084F010008D0
:1000D0004F0100084F0100084F0100084F010008C0
:1000E0004F0100084F0100084F0100080000000008
:1000F0000000000000000000000000000000000000
:1001000000000000000000000000000000000000EF
:1001100000000000000000004F0100084F0100082F
:10012000DFF80CD000F018F8004800479F080008DE
:10013000480400200648804706480047FEE7FEE7DF
:10014000FEE7FEE7FEE7FEE7FEE7FEE7FEE7FEE787
:100150001908000821010008064C074D06E0E06878
:1001600040F0010394E8070098471034AC42F6D3FE
:10017000FFF7DAFFB0080008D008000821B1826854
:1001800042F00102826003E0826822F00102826094
:10019000704721B1826842F48072826003E0826815
:1001A00022F480728260704710B5364800F030F952
:1001B000354836490860364848600020886003208A
:1001C000C86000200861802048614000886180008C
:1001D000C861202008620002486200208862294825
:1001E00000F0BCF90121274800F005F90020294959
:1001F00008600120087148714FF460208860002079
:10020000C8600320087420484C3800F059F80723D0
:10021000012202211C484C3800F07AF80723022200
:10022000032119484C3800F073F8072303220421F6
:1002300015484C3800F06CF8012113484C38FFF792
:10024000A8FF012110484C38FFF798FF0E484C38A2
:1002500000F0BAF800BF0C484C3800F027F800282E
:10026000F9D109484C3800F0BFF800BF06484C38B7
:1002700000F012F80028F9D1012103484C3800F0B1
:10028000A8F810BD080002404C2401401C000020CA
:100290000000002008000020014600208A6802F0CB
:1002A00004020AB1012000E000207047014600204E
:1002B0008A6802F008020AB1012000E000207047BD
:1002C00030B502460020002350680F4C20400D79C5
:1002D0000C6844EA05242043506090680B4C204091
:1002E000D1E902542C434D7944EA450420439060FF
:1002F000D06A20F470000C7C641EE4B2234340EA10
:100300000350D06230BD0000FFFEF0FFFDF7F1FFAB
:10031000F0B504460D4600200021092D11DDE068EE
:10032000A5F10A0606EB4607072606FA07F18843F9
:10033000A5F10A0606EB460603FA06F10843E0605B
:100340000CE0206905EB4507072606FA07F188430C
:1003500005EB450603FA06F108432061072A0FDA88
:10036000606B561E06EB86071F2606FA07F18843C8
:10037000561E06EB860605FA06F10843606322E086
:100380000D2A0FDA206BD61F06EB86071F2606FA0A
:1003900007F18843D61F06EB860605FA06F10843E7
:1003A000206310E0E06AA2F10D0606EB86071F2627
:1003B00006FA07F18843A2F10D0606EB860605FA58
:1003C00006F10843E062F0BD816841F008018160F8
:1003D000704721B1826842F4A002826003E0826823
:1003E00022F4A00282607047816841F004018160BC
:1003F000704700BFFEE721B1026842F001020260CF
:1004000004E002684FF6FE731A4002607047000075
:1004100001684FF6FE7211400160002101604160E9
:100420008160C1604B49884208D14A49083949680E
:1004300041F00F01474A083A51608AE045491431BA
:10044000884208D143490839496841F0F001414ADE
:10045000083A51607DE03F492831884208D13D4942
:100460000839496841F470613A4A083A516070E0CD
:1004700038493C31884208D136490839496841F445
:100480007041344A083A516063E032495031884241
:1004900008D130490839496841F470212D4A083A99
:1004A000516056E02B496431884208D12949083906
:1004B000496841F47001274A083A516049E02549EA
:1004C0007831884208D123490839496841F0706180
:1004D000204A083A51603CE01F49884206D1011F7A
:1004E000096841F00F01021F116032E01A4914310E
:1004F000884208D11849091F096841F0F001164ADD
:10050000121F116025E014492831884208D1124990
:10051000091F096841F470610F4A121F116018E049
:100520000D493C31884208D10B49091F096841F443
:100530007041094A121F11600BE00749503188428F
:1005400007D10549091F096841F47021024A121FA9
:1005500011607047080002400804024010B50022F4
:10056000026847F6F0739A430C6A8B6823430C6960
:1005700023434C6923438C692343CC6923434C6A4E
:1005800023438C6A23431A430260CB6843600B68A1
:1005900083604B68C36010BD7047000008B51C2025
:1005A000ADF8000000208DF803006946014800F016
:1005B00003F808BD000801402DE9F041024600257E
:1005C0000026002000230024002791F803C00CF02F
:1005D0000F0591F803C00CF0100CBCF1000F03D014
:1005E00091F802C04CEA050591F800C0BCF1000F7B
:1005F00031D0146800202BE04FF0010C0CFA00F30E
:10060000B1F800C00CEA03069E4220D183004FF0EF
:100610000F0C0CFA03F7BC4305FA03FC4CEA040484
:1006200091F803C0BCF1280F06D14FF0010C0CFA71
:1006300000FCC2F814C00AE091F803C0BCF1480FF6
:1006400005D14FF0010C0CFA00FCC2F810C0401CA0
:100650000828D1D31460B1F800C0BCF1FF0F34DD1D
:10066000546800202EE000F1080C4FF0010808FA51
:100670000CF3B1F800C00CEA03069E4221D18300BE
:100680004FF00F0C0CFA03F7BC4305FA03FC4CEADD
:10069000040491F803C0BCF1280F05D100F1080C47
:1006A00008FA0CF8C2F8148091F803C0BCF1480FA6
:1006B00007D100F1080C4FF0010808FA0CF8C2F855
:1006C0001080401C0828CED35460BDE8F08100BFE4
:1006D000FEE700BFFEE770477047000001460020BC
:1006E000034A506820F440400843506070470000BF
:1006F0000010024029B1064A52690243044B5A6174
:1007000004E0034A52698243014B5A61704700007A
:100710000010024029B1064A92690243044B9A61D3
:1007200004E0034A92698243014B9A6170470000DA
:100730000010024010B50020FFF7D0FF012108464D
:10074000FFF7D8FF01214FF40170FFF7E3FF10BD61
:10075000704710B500F002F810BD00000CB5002085
:10076000019000902A48006840F4803028490860D1
:1007700000BF2748006800F4003000900198401C3A
:100780000190009818B90198B0F5A06FF1D12048F8
:10079000006800F4003010B10120009001E000205A
:1007A00000900098012831D11948406818494860E4
:1007B0000846406848600846406848600846406807
:1007C00020F47C1048600846406840F49810486067
:1007D0000846006840F08070086000BF0C48006860
:1007E00000F000700028F9D00948406820F00300AC
:1007F000074948600846406840F00200486000BF72
:100800000348406800F00C000828F9D10CBD000036
:10081000001002407047000010B51448006840F016
:1008200001001249086008464068114908400F4914
:100830004860084600680F4908400C4908600846AF
:10084000006820F4802008600846406820F4FE001C
:1008500048604FF41F0088600020C862FFF779FFEE
:100860004FF000600449086010BD00000010024015
:100870000000FFF8FFFFF6FE08ED00E000BFFEE716
:1008800002E008C8121F08C1002AFAD17047704759
:10089000002001E001C1121F002AFBD17047FFF7C1
:1008A00049FFFFF77BFEFFF77FFC00BFFEE700007C
:1008B000D0080008000000200800000080080008A0
:1008C000D808000808000020400400009008000834
:0808D000000000000000000020
:0400000508000121CD
:00000001FF
